{
  "_format": "hh-sol-artifact-1",
  "contractName": "ExchangeIssuanceZeroEx",
  "sourceName": "contracts/exchangeIssuance/ExchangeIssuanceZeroEx.sol",
  "abi": [
    {
      "inputs": [
        {
          "internalType": "address",
          "name": "_weth",
          "type": "address"
        },
        {
          "internalType": "contract IController",
          "name": "_setController",
          "type": "address"
        },
        {
          "internalType": "contract IBasicIssuanceModule",
          "name": "_basicIssuanceModule",
          "type": "address"
        },
        {
          "internalType": "address",
          "name": "_swapTarget",
          "type": "address"
        }
      ],
      "stateMutability": "nonpayable",
      "type": "constructor"
    },
    {
      "anonymous": false,
      "inputs": [
        {
          "indexed": false,
          "internalType": "contract IERC20",
          "name": "sellToken",
          "type": "address"
        },
        {
          "indexed": false,
          "internalType": "contract IERC20",
          "name": "buyToken",
          "type": "address"
        },
        {
          "indexed": false,
          "internalType": "uint256",
          "name": "boughtAmount",
          "type": "uint256"
        }
      ],
      "name": "BoughtTokens",
      "type": "event"
    },
    {
      "anonymous": false,
      "inputs": [
        {
          "indexed": true,
          "internalType": "address",
          "name": "_recipient",
          "type": "address"
        },
        {
          "indexed": true,
          "internalType": "contract ISetToken",
          "name": "_setToken",
          "type": "address"
        },
        {
          "indexed": true,
          "internalType": "contract IERC20",
          "name": "_inputToken",
          "type": "address"
        },
        {
          "indexed": false,
          "internalType": "uint256",
          "name": "_amountInputToken",
          "type": "uint256"
        },
        {
          "indexed": false,
          "internalType": "uint256",
          "name": "_amountSetIssued",
          "type": "uint256"
        }
      ],
      "name": "ExchangeIssue",
      "type": "event"
    },
    {
      "anonymous": false,
      "inputs": [
        {
          "indexed": true,
          "internalType": "address",
          "name": "_recipient",
          "type": "address"
        },
        {
          "indexed": true,
          "internalType": "contract ISetToken",
          "name": "_setToken",
          "type": "address"
        },
        {
          "indexed": true,
          "internalType": "contract IERC20",
          "name": "_outputToken",
          "type": "address"
        },
        {
          "indexed": false,
          "internalType": "uint256",
          "name": "_amountSetRedeemed",
          "type": "uint256"
        },
        {
          "indexed": false,
          "internalType": "uint256",
          "name": "_amountOutputToken",
          "type": "uint256"
        }
      ],
      "name": "ExchangeRedeem",
      "type": "event"
    },
    {
      "anonymous": false,
      "inputs": [
        {
          "indexed": true,
          "internalType": "address",
          "name": "previousOwner",
          "type": "address"
        },
        {
          "indexed": true,
          "internalType": "address",
          "name": "newOwner",
          "type": "address"
        }
      ],
      "name": "OwnershipTransferred",
      "type": "event"
    },
    {
      "anonymous": false,
      "inputs": [
        {
          "indexed": true,
          "internalType": "address",
          "name": "_recipient",
          "type": "address"
        },
        {
          "indexed": false,
          "internalType": "uint256",
          "name": "_refundAmount",
          "type": "uint256"
        }
      ],
      "name": "Refund",
      "type": "event"
    },
    {
      "inputs": [],
      "name": "ETH_ADDRESS",
      "outputs": [
        {
          "internalType": "address",
          "name": "",
          "type": "address"
        }
      ],
      "stateMutability": "view",
      "type": "function",
      "gas": "0xa7d8c0"
    },
    {
      "inputs": [],
      "name": "WETH",
      "outputs": [
        {
          "internalType": "address",
          "name": "",
          "type": "address"
        }
      ],
      "stateMutability": "view",
      "type": "function",
      "gas": "0xa7d8c0"
    },
    {
      "inputs": [
        {
          "internalType": "contract ISetToken",
          "name": "_setToken",
          "type": "address"
        }
      ],
      "name": "approveSetToken",
      "outputs": [],
      "stateMutability": "nonpayable",
      "type": "function",
      "gas": "0xa7d8c0"
    },
    {
      "inputs": [
        {
          "internalType": "contract IERC20",
          "name": "_token",
          "type": "address"
        }
      ],
      "name": "approveToken",
      "outputs": [],
      "stateMutability": "nonpayable",
      "type": "function",
      "gas": "0xa7d8c0"
    },
    {
      "inputs": [
        {
          "internalType": "contract IERC20[]",
          "name": "_tokens",
          "type": "address[]"
        }
      ],
      "name": "approveTokens",
      "outputs": [],
      "stateMutability": "nonpayable",
      "type": "function",
      "gas": "0xa7d8c0"
    },
    {
      "inputs": [],
      "name": "basicIssuanceModule",
      "outputs": [
        {
          "internalType": "contract IBasicIssuanceModule",
          "name": "",
          "type": "address"
        }
      ],
      "stateMutability": "view",
      "type": "function",
      "gas": "0xa7d8c0"
    },
    {
      "inputs": [
        {
          "internalType": "contract ISetToken",
          "name": "_setToken",
          "type": "address"
        },
        {
          "internalType": "uint256",
          "name": "_amountSetToken",
          "type": "uint256"
        },
        {
          "components": [
            {
              "internalType": "contract IERC20",
              "name": "sellToken",
              "type": "address"
            },
            {
              "internalType": "contract IERC20",
              "name": "buyToken",
              "type": "address"
            },
            {
              "internalType": "bytes",
              "name": "swapCallData",
              "type": "bytes"
            }
          ],
          "internalType": "struct ExchangeIssuanceZeroEx.ZeroExSwapQuote[]",
          "name": "_componentQuotes",
          "type": "tuple[]"
        }
      ],
      "name": "issueExactSetFromETH",
      "outputs": [
        {
          "internalType": "uint256",
          "name": "",
          "type": "uint256"
        }
      ],
      "stateMutability": "payable",
      "type": "function",
      "gas": "0xa7d8c0"
    },
    {
      "inputs": [
        {
          "internalType": "contract ISetToken",
          "name": "_setToken",
          "type": "address"
        },
        {
          "internalType": "contract IERC20",
          "name": "_inputToken",
          "type": "address"
        },
        {
          "components": [
            {
              "internalType": "contract IERC20",
              "name": "sellToken",
              "type": "address"
            },
            {
              "internalType": "contract IERC20",
              "name": "buyToken",
              "type": "address"
            },
            {
              "internalType": "bytes",
              "name": "swapCallData",
              "type": "bytes"
            }
          ],
          "internalType": "struct ExchangeIssuanceZeroEx.ZeroExSwapQuote",
          "name": "_inputQuote",
          "type": "tuple"
        },
        {
          "internalType": "uint256",
          "name": "_amountSetToken",
          "type": "uint256"
        },
        {
          "internalType": "uint256",
          "name": "_maxAmountInputToken",
          "type": "uint256"
        },
        {
          "components": [
            {
              "internalType": "contract IERC20",
              "name": "sellToken",
              "type": "address"
            },
            {
              "internalType": "contract IERC20",
              "name": "buyToken",
              "type": "address"
            },
            {
              "internalType": "bytes",
              "name": "swapCallData",
              "type": "bytes"
            }
          ],
          "internalType": "struct ExchangeIssuanceZeroEx.ZeroExSwapQuote[]",
          "name": "_componentQuotes",
          "type": "tuple[]"
        }
      ],
      "name": "issueExactSetFromToken",
      "outputs": [
        {
          "internalType": "uint256",
          "name": "",
          "type": "uint256"
        }
      ],
      "stateMutability": "nonpayable",
      "type": "function",
      "gas": "0xa7d8c0"
    },
    {
      "inputs": [],
      "name": "owner",
      "outputs": [
        {
          "internalType": "address",
          "name": "",
          "type": "address"
        }
      ],
      "stateMutability": "view",
      "type": "function",
      "gas": "0xa7d8c0"
    },
    {
      "inputs": [
        {
          "internalType": "contract ISetToken",
          "name": "_setToken",
          "type": "address"
        },
        {
          "internalType": "uint256",
          "name": "_amountSetToken",
          "type": "uint256"
        },
        {
          "internalType": "uint256",
          "name": "_minEthReceive",
          "type": "uint256"
        },
        {
          "components": [
            {
              "internalType": "contract IERC20",
              "name": "sellToken",
              "type": "address"
            },
            {
              "internalType": "contract IERC20",
              "name": "buyToken",
              "type": "address"
            },
            {
              "internalType": "bytes",
              "name": "swapCallData",
              "type": "bytes"
            }
          ],
          "internalType": "struct ExchangeIssuanceZeroEx.ZeroExSwapQuote[]",
          "name": "_componentQuotes",
          "type": "tuple[]"
        }
      ],
      "name": "redeemExactSetForETH",
      "outputs": [
        {
          "internalType": "uint256",
          "name": "",
          "type": "uint256"
        }
      ],
      "stateMutability": "nonpayable",
      "type": "function",
      "gas": "0xa7d8c0"
    },
    {
      "inputs": [
        {
          "internalType": "contract ISetToken",
          "name": "_setToken",
          "type": "address"
        },
        {
          "internalType": "contract IERC20",
          "name": "_outputToken",
          "type": "address"
        },
        {
          "components": [
            {
              "internalType": "contract IERC20",
              "name": "sellToken",
              "type": "address"
            },
            {
              "internalType": "contract IERC20",
              "name": "buyToken",
              "type": "address"
            },
            {
              "internalType": "bytes",
              "name": "swapCallData",
              "type": "bytes"
            }
          ],
          "internalType": "struct ExchangeIssuanceZeroEx.ZeroExSwapQuote",
          "name": "_outputQuote",
          "type": "tuple"
        },
        {
          "internalType": "uint256",
          "name": "_amountSetToken",
          "type": "uint256"
        },
        {
          "internalType": "uint256",
          "name": "_minOutputReceive",
          "type": "uint256"
        },
        {
          "components": [
            {
              "internalType": "contract IERC20",
              "name": "sellToken",
              "type": "address"
            },
            {
              "internalType": "contract IERC20",
              "name": "buyToken",
              "type": "address"
            },
            {
              "internalType": "bytes",
              "name": "swapCallData",
              "type": "bytes"
            }
          ],
          "internalType": "struct ExchangeIssuanceZeroEx.ZeroExSwapQuote[]",
          "name": "_componentQuotes",
          "type": "tuple[]"
        }
      ],
      "name": "redeemExactSetForToken",
      "outputs": [
        {
          "internalType": "uint256",
          "name": "",
          "type": "uint256"
        }
      ],
      "stateMutability": "nonpayable",
      "type": "function",
      "gas": "0xa7d8c0"
    },
    {
      "inputs": [],
      "name": "renounceOwnership",
      "outputs": [],
      "stateMutability": "nonpayable",
      "type": "function",
      "gas": "0xa7d8c0"
    },
    {
      "inputs": [],
      "name": "setController",
      "outputs": [
        {
          "internalType": "contract IController",
          "name": "",
          "type": "address"
        }
      ],
      "stateMutability": "view",
      "type": "function",
      "gas": "0xa7d8c0"
    },
    {
      "inputs": [
        {
          "internalType": "address",
          "name": "_swapTarget",
          "type": "address"
        }
      ],
      "name": "setSwapTarget",
      "outputs": [],
      "stateMutability": "nonpayable",
      "type": "function",
      "gas": "0xa7d8c0"
    },
    {
      "inputs": [],
      "name": "swapTarget",
      "outputs": [
        {
          "internalType": "address",
          "name": "",
          "type": "address"
        }
      ],
      "stateMutability": "view",
      "type": "function",
      "gas": "0xa7d8c0"
    },
    {
      "inputs": [
        {
          "internalType": "address",
          "name": "newOwner",
          "type": "address"
        }
      ],
      "name": "transferOwnership",
      "outputs": [],
      "stateMutability": "nonpayable",
      "type": "function",
      "gas": "0xa7d8c0"
    },
    {
      "stateMutability": "payable",
      "type": "receive"
    }
  ],
  "bytecode": "0x60e06040523480156200001157600080fd5b506040516200347d3803806200347d8339810160408190526200003491620000e4565b6000620000496001600160e01b03620000e016565b600080546001600160a01b0319166001600160a01b0383169081178255604051929350917f8be0079c531659141344cd1fd0a4f28419497f9722a3daafe3b4186f6b6457e0908290a35060018055606092831b6001600160601b031990811660a05291831b821660c0529290911b16608052600280546001600160a01b0319166001600160a01b0390921691909117905562000164565b3390565b60008060008060808587031215620000fa578384fd5b845162000107816200014b565b60208601519094506200011a816200014b565b60408601519093506200012d816200014b565b606086015190925062000140816200014b565b939692955090935050565b6001600160a01b03811681146200016157600080fd5b50565b60805160601c60a05160601c60c05160601c613284620001f9600039806109e35280610a9952806117d35280611962525080610379528061071d5280610acf5280610b055280610faa5280611266525080610107528061052e52806105e152806109045280610d225280610e805280610f6f528061140b52806114a3528061160d52806116bf5280611abc52506132846000f3fe6080604052600436106100f75760003560e01c80638da5cb5b1161008a578063ad5c464811610059578063ad5c4648146102a8578063b7711c63146102bd578063f2fde38b146102dd578063f51641df146102fd5761014f565b80638da5cb5b1461023e57806399178a4814610253578063a734f06e14610273578063ac43070b146102885761014f565b8063715018a6116100c6578063715018a6146101df5780637e7f0cde146101f457806380b2edd8146102095780638b2704ec146102295761014f565b80630d7600a21461015457806327f81b211461017457806340161a061461019d57806350e2c07f146101bd5761014f565b3661014f57336001600160a01b037f0000000000000000000000000000000000000000000000000000000000000000161461014d5760405162461bcd60e51b815260040161014490612b20565b60405180910390fd5b005b600080fd5b34801561016057600080fd5b5061014d61016f3660046125f5565b61031d565b6101876101823660046128d2565b610374565b604051610194919061318b565b60405180910390f35b3480156101a957600080fd5b506101876101b8366004612929565b610718565b3480156101c957600080fd5b506101d26109e1565b60405161019491906129c1565b3480156101eb57600080fd5b5061014d610a05565b34801561020057600080fd5b506101d2610a84565b34801561021557600080fd5b5061014d6102243660046125f5565b610a93565b34801561023557600080fd5b506101d2610acd565b34801561024a57600080fd5b506101d2610af1565b34801561025f57600080fd5b5061018761026e36600461283a565b610b00565b34801561027f57600080fd5b506101d2610f19565b34801561029457600080fd5b5061014d6102a33660046126ad565b610f31565b3480156102b457600080fd5b506101d2610f6d565b3480156102c957600080fd5b5061014d6102d83660046125f5565b610f91565b3480156102e957600080fd5b5061014d6102f83660046125f5565b6111ab565b34801561030957600080fd5b5061018761031836600461283a565b611261565b610325611584565b6000546001600160a01b039081169116146103525760405162461bcd60e51b815260040161014490612ead565b600280546001600160a01b0319166001600160a01b0392909216919091179055565b6000837f00000000000000000000000000000000000000000000000000000000000000006001600160a01b03166374ebe3ec826040518263ffffffff1660e01b81526004016103c391906129c1565b60206040518083038186803b1580156103db57600080fd5b505afa1580156103ef573d6000803e3d6000fd5b505050506040513d601f19601f82011682018060405250810190610413919061281a565b61042f5760405162461bcd60e51b815260040161014490612c40565b848484600082116104525760405162461bcd60e51b815260040161014490612d9d565b8051836001600160a01b03166399d50d5d6040518163ffffffff1660e01b815260040160006040518083038186803b15801561048d57600080fd5b505afa1580156104a1573d6000803e3d6000fd5b505050506040513d6000823e601f3d908101601f191682016040526104c99190810190612611565b51146104e75760405162461bcd60e51b815260040161014490612ace565b6002600154141561050a5760405162461bcd60e51b815260040161014490613110565b60026001553461052c5760405162461bcd60e51b815260040161014490613147565b7f00000000000000000000000000000000000000000000000000000000000000006001600160a01b031663d0e30db0346040518263ffffffff1660e01b81526004016000604051808303818588803b15801561058757600080fd5b505af115801561059b573d6000803e3d6000fd5b505050505060006105ae8989348a611588565b905060006105c2348363ffffffff61184716565b9050801561065b57604051632e1a7d4d60e01b81526001600160a01b037f00000000000000000000000000000000000000000000000000000000000000001690632e1a7d4d9061061690849060040161318b565b600060405180830381600087803b15801561063057600080fd5b505af1158015610644573d6000803e3d6000fd5b5061065b925033915083905063ffffffff61189216565b336001600160a01b03167fbb28353e4598c3b9199101a66e0989549b659a59a54d2c27fbb183f1932c8e6d82604051610694919061318b565b60405180910390a273eeeeeeeeeeeeeeeeeeeeeeeeeeeeeeeeeeeeeeee6001600160a01b03168a6001600160a01b0316336001600160a01b03167f44b3b16472a909f781f712646232271ffd156fff642d4895b700146a40462601858d6040516106ff929190613194565b60405180910390a4600180559998505050505050505050565b6000847f00000000000000000000000000000000000000000000000000000000000000006001600160a01b03166374ebe3ec826040518263ffffffff1660e01b815260040161076791906129c1565b60206040518083038186803b15801561077f57600080fd5b505afa158015610793573d6000803e3d6000fd5b505050506040513d601f19601f820116820180604052508101906107b7919061281a565b6107d35760405162461bcd60e51b815260040161014490612c40565b858584600082116107f65760405162461bcd60e51b815260040161014490612d9d565b8051836001600160a01b03166399d50d5d6040518163ffffffff1660e01b815260040160006040518083038186803b15801561083157600080fd5b505afa158015610845573d6000803e3d6000fd5b505050506040513d6000823e601f3d908101601f1916820160405261086d9190810190612611565b511461088b5760405162461bcd60e51b815260040161014490612ace565b600260015414156108ae5760405162461bcd60e51b815260040161014490613110565b60026001556108bd898961192e565b5060006108cb8a8a896119d3565b9050878110156108ed5760405162461bcd60e51b815260040161014490612d51565b604051632e1a7d4d60e01b81526001600160a01b037f00000000000000000000000000000000000000000000000000000000000000001690632e1a7d4d9061093990849060040161318b565b600060405180830381600087803b15801561095357600080fd5b505af1158015610967573d6000803e3d6000fd5b5061097e925033915083905063ffffffff61189216565b73eeeeeeeeeeeeeeeeeeeeeeeeeeeeeeeeeeeeeeee6001600160a01b03168a6001600160a01b0316336001600160a01b03167f9f8f1a845f52c0a7086f16f355a092a5acf0cca219c831409b9e5b1c39af9f9f8c856040516106ff929190613194565b7f000000000000000000000000000000000000000000000000000000000000000081565b610a0d611584565b6000546001600160a01b03908116911614610a3a5760405162461bcd60e51b815260040161014490612ead565b600080546040516001600160a01b03909116907f8be0079c531659141344cd1fd0a4f28419497f9722a3daafe3b4186f6b6457e0908390a3600080546001600160a01b0319169055565b6002546001600160a01b031681565b610aca817f00000000000000000000000000000000000000000000000000000000000000006bffffffffffffffffffffffff611c68565b50565b7f000000000000000000000000000000000000000000000000000000000000000081565b6000546001600160a01b031690565b6000867f00000000000000000000000000000000000000000000000000000000000000006001600160a01b03166374ebe3ec826040518263ffffffff1660e01b8152600401610b4f91906129c1565b60206040518083038186803b158015610b6757600080fd5b505afa158015610b7b573d6000803e3d6000fd5b505050506040513d601f19601f82011682018060405250810190610b9f919061281a565b610bbb5760405162461bcd60e51b815260040161014490612c40565b87858460008211610bde5760405162461bcd60e51b815260040161014490612d9d565b8051836001600160a01b03166399d50d5d6040518163ffffffff1660e01b815260040160006040518083038186803b158015610c1957600080fd5b505afa158015610c2d573d6000803e3d6000fd5b505050506040513d6000823e601f3d908101601f19168201604052610c559190810190612611565b5114610c735760405162461bcd60e51b815260040161014490612ace565b60026001541415610c965760405162461bcd60e51b815260040161014490613110565b60026001556040516323b872dd60e01b81526001600160a01b038b16906323b872dd90610ccb90339030908c906004016129ef565b602060405180830381600087803b158015610ce557600080fd5b505af1158015610cf9573d6000803e3d6000fd5b505050506040513d601f19601f82011682018060405250810190610d1d919061281a565b5060007f00000000000000000000000000000000000000000000000000000000000000006001600160a01b03168b6001600160a01b03161415610d61575086610e49565b600254600090610d7c908d906001600160a01b03168b611c68565b610d858b611d1c565b909250905088811115610daa5760405162461bcd60e51b81526004016101449061303b565b6000610dbc8a8363ffffffff61184716565b90508015610e465760405163a9059cbb60e01b81526001600160a01b038e169063a9059cbb90610df29033908590600401612a13565b602060405180830381600087803b158015610e0c57600080fd5b505af1158015610e20573d6000803e3d6000fd5b505050506040513d601f19601f82011682018060405250810190610e44919061281a565b505b50505b6000610e578d8b848b611588565b90506000610e6b838363ffffffff61184716565b90508015610ead57610ead6001600160a01b037f000000000000000000000000000000000000000000000000000000000000000016338363ffffffff61202416565b8c6001600160a01b03168e6001600160a01b0316336001600160a01b03167f44b3b16472a909f781f712646232271ffd156fff642d4895b700146a404626018d8f604051610efc929190613194565b60405180910390a450600180559c9b505050505050505050505050565b73eeeeeeeeeeeeeeeeeeeeeeeeeeeeeeeeeeeeeeee81565b60005b81811015610f6857610f60838383818110610f4b57fe5b905060200201602081019061022491906125f5565b600101610f34565b505050565b7f000000000000000000000000000000000000000000000000000000000000000081565b604051631d3af8fb60e21b815281906001600160a01b037f000000000000000000000000000000000000000000000000000000000000000016906374ebe3ec90610fdf9084906004016129c1565b60206040518083038186803b158015610ff757600080fd5b505afa15801561100b573d6000803e3d6000fd5b505050506040513d601f19601f8201168201806040525081019061102f919061281a565b61104b5760405162461bcd60e51b815260040161014490612c40565b6060826001600160a01b03166399d50d5d6040518163ffffffff1660e01b815260040160006040518083038186803b15801561108657600080fd5b505afa15801561109a573d6000803e3d6000fd5b505050506040513d6000823e601f3d908101601f191682016040526110c29190810190612611565b905060005b81518110156111a557836001600160a01b031663a7bdad038383815181106110eb57fe5b60200260200101516040518263ffffffff1660e01b815260040161110f91906129c1565b60006040518083038186803b15801561112757600080fd5b505afa15801561113b573d6000803e3d6000fd5b505050506040513d6000823e601f3d908101601f191682016040526111639190810190612611565b51156111815760405162461bcd60e51b815260040161014490612e1c565b61119d82828151811061119057fe5b6020026020010151610a93565b6001016110c7565b50505050565b6111b3611584565b6000546001600160a01b039081169116146111e05760405162461bcd60e51b815260040161014490612ead565b6001600160a01b0381166112065760405162461bcd60e51b815260040161014490612b6d565b600080546040516001600160a01b03808516939216917f8be0079c531659141344cd1fd0a4f28419497f9722a3daafe3b4186f6b6457e091a3600080546001600160a01b0319166001600160a01b0392909216919091179055565b6000867f00000000000000000000000000000000000000000000000000000000000000006001600160a01b03166374ebe3ec826040518263ffffffff1660e01b81526004016112b091906129c1565b60206040518083038186803b1580156112c857600080fd5b505afa1580156112dc573d6000803e3d6000fd5b505050506040513d601f19601f82011682018060405250810190611300919061281a565b61131c5760405162461bcd60e51b815260040161014490612c40565b8785846000821161133f5760405162461bcd60e51b815260040161014490612d9d565b8051836001600160a01b03166399d50d5d6040518163ffffffff1660e01b815260040160006040518083038186803b15801561137a57600080fd5b505afa15801561138e573d6000803e3d6000fd5b505050506040513d6000823e601f3d908101601f191682016040526113b69190810190612611565b51146113d45760405162461bcd60e51b815260040161014490612ace565b600260015414156113f75760405162461bcd60e51b815260040161014490613110565b600260015560006114088c8a61192e565b507f00000000000000000000000000000000000000000000000000000000000000006001600160a01b03168b6001600160a01b031614156114555761144e8c8a896119d3565b90506114e0565b89602001516001600160a01b03168b6001600160a01b03161461148a5760405162461bcd60e51b815260040161014490612bb3565b60006114978d8b8a6119d3565b6002549091506114d2907f0000000000000000000000000000000000000000000000000000000000000000906001600160a01b031683611c68565b6114db8b611d1c565b509150505b878110156115005760405162461bcd60e51b815260040161014490612a82565b61151a6001600160a01b038c16338363ffffffff61202416565b8a6001600160a01b03168c6001600160a01b0316336001600160a01b03167f9f8f1a845f52c0a7086f16f355a092a5acf0cca219c831409b9e5b1c39af9f9f8c85604051611569929190613194565b60405180910390a4600180559b9a5050505050505050505050565b3390565b60006060856001600160a01b031663802758606040518163ffffffff1660e01b815260040160006040518083038186803b1580156115c557600080fd5b505afa1580156115d9573d6000803e3d6000fd5b505050506040513d6000823e601f3d908101601f191682016040526116019190810190612719565b60025490915061163c907f0000000000000000000000000000000000000000000000000000000000000000906001600160a01b031686611c68565b60005b81518110156117bb57611650612414565b82828151811061165c57fe5b6020026020010151905061166e612458565b85838151811061167a57fe5b6020026020010151905080602001516001600160a01b031682600001516001600160a01b0316146116bd5760405162461bcd60e51b815260040161014490612f26565b7f00000000000000000000000000000000000000000000000000000000000000006001600160a01b031681600001516001600160a01b0316146117125760405162461bcd60e51b8152600401610144906130cc565b60008061171e83611d1c565b604086015191935091508a906000611754670de0b6b3a7640000611748858563ffffffff61207a16565b9063ffffffff6120b416565b9050808510156117765760405162461bcd60e51b815260040161014490612fb1565b6117868a8563ffffffff6120f616565b99508b8a11156117a85760405162461bcd60e51b815260040161014490612de7565b50506001909501945061163f9350505050565b506040516336bc7a3d60e11b81526001600160a01b037f00000000000000000000000000000000000000000000000000000000000000001690636d78f47a9061180c90899089903390600401612a2c565b600060405180830381600087803b15801561182657600080fd5b505af115801561183a573d6000803e3d6000fd5b5050505050949350505050565b600061188983836040518060400160405280601e81526020017f536166654d6174683a207375627472616374696f6e206f766572666c6f77000081525061211b565b90505b92915050565b804710156118b25760405162461bcd60e51b815260040161014490612cd4565b6000826001600160a01b0316826040516118cb906129be565b60006040518083038185875af1925050503d8060008114611908576040519150601f19603f3d011682016040523d82523d6000602084013e61190d565b606091505b5050905080610f685760405162461bcd60e51b815260040161014490612c77565b600061194b6001600160a01b03841633308563ffffffff61214716565b604051635c833bfd60e01b81526001600160a01b037f00000000000000000000000000000000000000000000000000000000000000001690635c833bfd9061199b90869086903090600401612a2c565b600060405180830381600087803b1580156119b557600080fd5b505af11580156119c9573d6000803e3d6000fd5b5050505092915050565b600080600090506060856001600160a01b03166399d50d5d6040518163ffffffff1660e01b815260040160006040518083038186803b158015611a1557600080fd5b505afa158015611a29573d6000803e3d6000fd5b505050506040513d6000823e601f3d908101601f19168201604052611a519190810190612611565b905060005b8451811015611c5b57848181518110611a6b57fe5b6020026020010151600001516001600160a01b0316828281518110611a8c57fe5b60200260200101516001600160a01b031614611aba5760405162461bcd60e51b815260040161014490612f26565b7f00000000000000000000000000000000000000000000000000000000000000006001600160a01b0316858281518110611af057fe5b6020026020010151602001516001600160a01b031614611b225760405162461bcd60e51b815260040161014490612ff8565b6000876001600160a01b03166366cb8d2f848481518110611b3f57fe5b60200260200101516040518263ffffffff1660e01b8152600401611b6391906129c1565b60206040518083038186803b158015611b7b57600080fd5b505afa158015611b8f573d6000803e3d6000fd5b505050506040513d601f19601f82011682018060405250810190611bb3919061298a565b90506000611bc7828963ffffffff61216816565b9050611bf6878481518110611bd857fe5b6020908102919091010151516002546001600160a01b031683611c68565b600080611c15898681518110611c0857fe5b6020026020010151611d1c565b9150915080831015611c395760405162461bcd60e51b815260040161014490612ee2565b611c49878363ffffffff6120f616565b96505060019093019250611a56915050565b50909150505b9392505050565b604051636eb1769f60e11b81526000906001600160a01b0385169063dd62ed3e90611c9990309087906004016129d5565b60206040518083038186803b158015611cb157600080fd5b505afa158015611cc5573d6000803e3d6000fd5b505050506040513d601f19601f82011682018060405250810190611ce9919061298a565b9050818110156111a5576111a56001600160a01b038516846bffffffffffffffffffffffff84900363ffffffff61218616565b600080600083602001516001600160a01b03166370a08231306040518263ffffffff1660e01b8152600401611d5191906129c1565b60206040518083038186803b158015611d6957600080fd5b505afa158015611d7d573d6000803e3d6000fd5b505050506040513d601f19601f82011682018060405250810190611da1919061298a565b9050600084600001516001600160a01b03166370a08231306040518263ffffffff1660e01b8152600401611dd591906129c1565b60206040518083038186803b158015611ded57600080fd5b505afa158015611e01573d6000803e3d6000fd5b505050506040513d601f19601f82011682018060405250810190611e25919061298a565b60025460408088015190519293506000926060926001600160a01b031691611e4c916129a2565b6000604051808303816000865af19150503d8060008114611e89576040519150601f19603f3d011682016040523d82523d6000602084013e611e8e565b606091505b5091509150818190611eb35760405162461bcd60e51b81526004016101449190612a4f565b50611f448488602001516001600160a01b03166370a08231306040518263ffffffff1660e01b8152600401611ee891906129c1565b60206040518083038186803b158015611f0057600080fd5b505afa158015611f14573d6000803e3d6000fd5b505050506040513d601f19601f82011682018060405250810190611f38919061298a565b9063ffffffff61184716565b9550611fd687600001516001600160a01b03166370a08231306040518263ffffffff1660e01b8152600401611f7991906129c1565b60206040518083038186803b158015611f9157600080fd5b505afa158015611fa5573d6000803e3d6000fd5b505050506040513d601f19601f82011682018060405250810190611fc9919061298a565b849063ffffffff61184716565b94507f6dfe06ca5961b140f839316b505392ab4a18727b308bfb7d9275f8ed1cc99f048760000151886020015188604051612013939291906129ef565b60405180910390a150505050915091565b610f688363a9059cbb60e01b8484604051602401612043929190612a13565b60408051601f198184030181529190526020810180516001600160e01b03166001600160e01b031990931692909217909152612237565b6000826120895750600061188c565b8282028284828161209657fe5b04146118895760405162461bcd60e51b815260040161014490612e6c565b600061188983836040518060400160405280601a81526020017f536166654d6174683a206469766973696f6e206279207a65726f0000000000008152506122c6565b6000828201838110156118895760405162461bcd60e51b815260040161014490612c09565b6000818484111561213f5760405162461bcd60e51b81526004016101449190612a4f565b505050900390565b6111a5846323b872dd60e01b858585604051602401612043939291906129ef565b6000611889670de0b6b3a7640000611748858563ffffffff61207a16565b600061221682856001600160a01b031663dd62ed3e30876040518363ffffffff1660e01b81526004016121ba9291906129d5565b60206040518083038186803b1580156121d257600080fd5b505afa1580156121e6573d6000803e3d6000fd5b505050506040513d601f19601f8201168201806040525081019061220a919061298a565b9063ffffffff6120f616565b90506111a58463095ea7b360e01b8584604051602401612043929190612a13565b606061228c826040518060400160405280602081526020017f5361666545524332303a206c6f772d6c6576656c2063616c6c206661696c6564815250856001600160a01b03166122fd9092919063ffffffff16565b805190915015610f6857808060200190518101906122aa919061281a565b610f685760405162461bcd60e51b815260040161014490613082565b600081836122e75760405162461bcd60e51b81526004016101449190612a4f565b5060008385816122f357fe5b0495945050505050565b606061230c8484600085612314565b949350505050565b6060824710156123365760405162461bcd60e51b815260040161014490612d0b565b61233f856123d5565b61235b5760405162461bcd60e51b815260040161014490612f7a565b60006060866001600160a01b0316858760405161237891906129a2565b60006040518083038185875af1925050503d80600081146123b5576040519150601f19603f3d011682016040523d82523d6000602084013e6123ba565b606091505b50915091506123ca8282866123db565b979650505050505050565b3b151590565b606083156123ea575081611c61565b8251156123fa5782518084602001fd5b8160405162461bcd60e51b81526004016101449190612a4f565b6040518060a0016040528060006001600160a01b0316815260200160006001600160a01b0316815260200160008152602001600060ff168152602001606081525090565b6040805160608082018352600080835260208301529181019190915290565b805161188c81613239565b600082601f830112612492578081fd5b81356124a56124a0826131c9565b6131a2565b818152915060208083019084810160005b848110156124df576124cd888484358a0101612537565b845292820192908201906001016124b6565b505050505092915050565b600082601f8301126124fa578081fd5b81516125086124a0826131e9565b915080825283602082850101111561251f57600080fd5b61253081602084016020860161320d565b5092915050565b600060608284031215612548578081fd5b61255260606131a2565b9050813561255f81613239565b815260208281013561257081613239565b82820152604083013567ffffffffffffffff81111561258e57600080fd5b80840185601f8201126125a057600080fd5b803591506125b06124a0836131e9565b82815286848484010111156125c457600080fd5b828483018583013760008484830101528060408601525050505092915050565b805160ff8116811461188c57600080fd5b600060208284031215612606578081fd5b813561188981613239565b60006020808385031215612623578182fd5b825167ffffffffffffffff811115612639578283fd5b80840185601f82011261264a578384fd5b8051915061265a6124a0836131c9565b8281528381019082850185850284018601891015612676578687fd5b8693505b848410156126a157805161268d81613239565b83526001939093019291850191850161267a565b50979650505050505050565b600080602083850312156126bf578081fd5b823567ffffffffffffffff808211156126d6578283fd5b81850186601f8201126126e7578384fd5b80359250818311156126f7578384fd5b866020808502830101111561270a578384fd5b60200196919550909350505050565b6000602080838503121561272b578182fd5b825167ffffffffffffffff80821115612742578384fd5b81850186601f820112612753578485fd5b805192506127636124a0846131c9565b83815284810190828601875b8681101561280b578151850160a080601f19838f0301121561278f578a8bfd5b612798816131a2565b6127a48e8c8501612477565b81526127b38e60408501612477565b8b82015260608084015160408301526127cf8f608086016125e4565b9082015282820151898111156127e3578c8dfd5b6127f18f8d838701016124ea565b60808301525086525050928701929087019060010161276f565b50909998505050505050505050565b60006020828403121561282b578081fd5b81518015158114611889578182fd5b60008060008060008060c08789031215612852578182fd5b863561285d81613239565b9550602087013561286d81613239565b9450604087013567ffffffffffffffff80821115612889578384fd5b6128958a838b01612537565b9550606089013594506080890135935060a08901359150808211156128b8578283fd5b506128c589828a01612482565b9150509295509295509295565b6000806000606084860312156128e6578081fd5b83356128f181613239565b925060208401359150604084013567ffffffffffffffff811115612913578182fd5b61291f86828701612482565b9150509250925092565b6000806000806080858703121561293e578182fd5b843561294981613239565b93506020850135925060408501359150606085013567ffffffffffffffff811115612972578182fd5b61297e87828801612482565b91505092959194509250565b60006020828403121561299b578081fd5b5051919050565b600082516129b481846020870161320d565b9190910192915050565b90565b6001600160a01b0391909116815260200190565b6001600160a01b0392831681529116602082015260400190565b6001600160a01b039384168152919092166020820152604081019190915260600190565b6001600160a01b03929092168252602082015260400190565b6001600160a01b0393841681526020810192909252909116604082015260600190565b6000602082528251806020840152612a6e81604085016020870161320d565b601f01601f19169190910160400192915050565b6020808252602c908201527f45786368616e676549737375616e63653a20494e53554646494349454e54204f60408201526b155514155508105353d5539560a21b606082015260800190565b60208082526032908201527f45786368616e676549737375616e63653a2057524f4e47204e554d424552204f6040820152714620434f4d504f4e454e542051554f54455360701b606082015260800190565b6020808252602d908201527f45786368616e676549737375616e63653a20446972656374206465706f73697460408201526c1cc81b9bdd08185b1b1bddd959609a1b606082015260800190565b60208082526026908201527f4f776e61626c653a206e6577206f776e657220697320746865207a65726f206160408201526564647265737360d01b606082015260800190565b60208082526036908201527f45786368616e676549737375616e63653a204f555450555420544f4b454e202f6040820152750409eaaa8a0aaa840a2aa9ea88a409a92a69a82a886960531b606082015260800190565b6020808252601b908201527f536166654d6174683a206164646974696f6e206f766572666c6f770000000000604082015260600190565b6020808252601d908201527f45786368616e676549737375616e63653a20494e56414c494420534554000000604082015260600190565b6020808252603a908201527f416464726573733a20756e61626c6520746f2073656e642076616c75652c207260408201527f6563697069656e74206d61792068617665207265766572746564000000000000606082015260800190565b6020808252601d908201527f416464726573733a20696e73756666696369656e742062616c616e6365000000604082015260600190565b60208082526026908201527f416464726573733a20696e73756666696369656e742062616c616e636520666f6040820152651c8818d85b1b60d21b606082015260800190565b6020808252602c908201527f45786368616e676549737375616e63653a20494e53554646494349454e54205760408201526b11551208149150d15255915160a21b606082015260800190565b6020808252602a908201527f45786368616e676549737375616e63653a20494e56414c49442053455420544f60408201526912d15388105353d5539560b21b606082015260800190565b6020808252818101527f45786368616e676549737375616e63653a204f5645525350454e542057455448604082015260600190565b60208082526030908201527f45786368616e676549737375616e63653a2045585445524e414c5f504f53495460408201526f1253d394d7d393d517d0531313d5d15160821b606082015260800190565b60208082526021908201527f536166654d6174683a206d756c7469706c69636174696f6e206f766572666c6f6040820152607760f81b606082015260800190565b6020808252818101527f4f776e61626c653a2063616c6c6572206973206e6f7420746865206f776e6572604082015260600190565b60208082526024908201527f45786368616e676549737375616e63653a204f564552534f4c4420434f4d504f6040820152631391539560e21b606082015260800190565b60208082526034908201527f45786368616e676549737375616e63653a20434f4d504f4e454e54202f20515560408201527309ea88a40828888a48aa6a6409a92a69a82a886960631b606082015260800190565b6020808252601d908201527f416464726573733a2063616c6c20746f206e6f6e2d636f6e7472616374000000604082015260600190565b60208082526027908201527f45786368616e676549737375616e63653a20554e444552424f5547485420434f604082015266135413d391539560ca1b606082015260800190565b60208082526023908201527f45786368616e676549737375616e63653a20494e56414c49442042555920544f60408201526225a2a760e91b606082015260800190565b60208082526027908201527f45786368616e676549737375616e63653a204f5645525350454e5420494e50556040820152662a102a27a5a2a760c91b606082015260800190565b6020808252602a908201527f5361666545524332303a204552433230206f7065726174696f6e20646964206e6040820152691bdd081cdd58d8d9595960b21b606082015260800190565b60208082526024908201527f45786368616e676549737375616e63653a20494e56414c49442053454c4c205460408201526327a5a2a760e11b606082015260800190565b6020808252601f908201527f5265656e7472616e637947756172643a207265656e7472616e742063616c6c00604082015260600190565b60208082526024908201527f45786368616e676549737375616e63653a20494e56414c49442045544820414d60408201526313d5539560e21b606082015260800190565b90815260200190565b918252602082015260400190565b60405181810167ffffffffffffffff811182821017156131c157600080fd5b604052919050565b600067ffffffffffffffff8211156131df578081fd5b5060209081020190565b600067ffffffffffffffff8211156131ff578081fd5b50601f01601f191660200190565b60005b83811015613228578181015183820152602001613210565b838111156111a55750506000910152565b6001600160a01b0381168114610aca57600080fdfea26469706673582212203fde462f33ee77d88a032653a976d252384ceedebff41831e1a6bf08d3ac4c5264736f6c634300060a0033",
  "linkReferences": {},
  "deployedLinkReferences": {}
}